{
  "contractName": "Market",
  "abi": [
    {
      "anonymous": false,
      "inputs": [
        {
          "indexed": false,
          "internalType": "address",
          "name": "_owner",
          "type": "address"
        },
        {
          "indexed": false,
          "internalType": "string",
          "name": "_brandName",
          "type": "string"
        }
      ],
      "name": "BrandCreated",
      "type": "event"
    },
    {
      "anonymous": false,
      "inputs": [
        {
          "indexed": false,
          "internalType": "address",
          "name": "_owner",
          "type": "address"
        },
        {
          "indexed": false,
          "internalType": "string",
          "name": "_brandName",
          "type": "string"
        }
      ],
      "name": "BrandDeleted",
      "type": "event"
    },
    {
      "anonymous": false,
      "inputs": [
        {
          "indexed": false,
          "internalType": "address",
          "name": "_manufacturer",
          "type": "address"
        },
        {
          "indexed": true,
          "internalType": "uint256",
          "name": "_productId",
          "type": "uint256"
        },
        {
          "indexed": false,
          "internalType": "uint256",
          "name": "_time",
          "type": "uint256"
        }
      ],
      "name": "ProductCreated",
      "type": "event"
    },
    {
      "anonymous": false,
      "inputs": [
        {
          "indexed": false,
          "internalType": "address",
          "name": "_brandOwner",
          "type": "address"
        },
        {
          "indexed": false,
          "internalType": "address",
          "name": "_revokedBy",
          "type": "address"
        }
      ],
      "name": "brandReportRevoved",
      "type": "event"
    },
    {
      "anonymous": false,
      "inputs": [
        {
          "indexed": false,
          "internalType": "address",
          "name": "_brandOwner",
          "type": "address"
        },
        {
          "indexed": false,
          "internalType": "address",
          "name": "_reportedBy",
          "type": "address"
        }
      ],
      "name": "brandReported",
      "type": "event"
    },
    {
      "anonymous": false,
      "inputs": [
        {
          "indexed": true,
          "internalType": "uint256",
          "name": "_productId",
          "type": "uint256"
        },
        {
          "indexed": false,
          "internalType": "address",
          "name": "_from",
          "type": "address"
        },
        {
          "indexed": false,
          "internalType": "address",
          "name": "_to",
          "type": "address"
        },
        {
          "indexed": false,
          "internalType": "uint256",
          "name": "_price",
          "type": "uint256"
        },
        {
          "indexed": false,
          "internalType": "uint256",
          "name": "_time",
          "type": "uint256"
        }
      ],
      "name": "buySuccess",
      "type": "event"
    },
    {
      "anonymous": false,
      "inputs": [
        {
          "indexed": false,
          "internalType": "uint256",
          "name": "_productId",
          "type": "uint256"
        },
        {
          "indexed": false,
          "internalType": "uint256",
          "name": "_newPrice",
          "type": "uint256"
        }
      ],
      "name": "priceUpdated",
      "type": "event"
    },
    {
      "anonymous": false,
      "inputs": [
        {
          "indexed": false,
          "internalType": "uint256",
          "name": "_productId",
          "type": "uint256"
        }
      ],
      "name": "saleClosed",
      "type": "event"
    },
    {
      "anonymous": false,
      "inputs": [
        {
          "indexed": false,
          "internalType": "uint256",
          "name": "_productId",
          "type": "uint256"
        }
      ],
      "name": "saleStarted",
      "type": "event"
    },
    {
      "inputs": [
        {
          "internalType": "uint256",
          "name": "",
          "type": "uint256"
        }
      ],
      "name": "brandOwners",
      "outputs": [
        {
          "internalType": "address",
          "name": "",
          "type": "address"
        }
      ],
      "stateMutability": "view",
      "type": "function",
      "constant": true
    },
    {
      "inputs": [
        {
          "internalType": "address",
          "name": "",
          "type": "address"
        }
      ],
      "name": "brands",
      "outputs": [
        {
          "internalType": "string",
          "name": "brandName",
          "type": "string"
        },
        {
          "internalType": "string",
          "name": "logo",
          "type": "string"
        },
        {
          "internalType": "uint256",
          "name": "reports",
          "type": "uint256"
        }
      ],
      "stateMutability": "view",
      "type": "function",
      "constant": true
    },
    {
      "inputs": [
        {
          "internalType": "address",
          "name": "_brandOwner",
          "type": "address"
        },
        {
          "internalType": "address",
          "name": "_caller",
          "type": "address"
        }
      ],
      "name": "canIReport",
      "outputs": [
        {
          "internalType": "bool",
          "name": "canI",
          "type": "bool"
        },
        {
          "internalType": "string",
          "name": "reason",
          "type": "string"
        }
      ],
      "stateMutability": "view",
      "type": "function",
      "constant": true
    },
    {
      "inputs": [
        {
          "internalType": "string",
          "name": "_brandName",
          "type": "string"
        },
        {
          "internalType": "string",
          "name": "_logo",
          "type": "string"
        }
      ],
      "name": "createBrand",
      "outputs": [],
      "stateMutability": "nonpayable",
      "type": "function"
    },
    {
      "inputs": [
        {
          "internalType": "uint256",
          "name": "_mfg",
          "type": "uint256"
        },
        {
          "internalType": "string",
          "name": "_model",
          "type": "string"
        },
        {
          "internalType": "uint256",
          "name": "_price",
          "type": "uint256"
        },
        {
          "internalType": "uint256",
          "name": "_mrp",
          "type": "uint256"
        }
      ],
      "name": "createProduct",
      "outputs": [],
      "stateMutability": "nonpayable",
      "type": "function"
    },
    {
      "inputs": [],
      "name": "getBrandsLength",
      "outputs": [
        {
          "internalType": "uint256",
          "name": "",
          "type": "uint256"
        }
      ],
      "stateMutability": "view",
      "type": "function",
      "constant": true
    },
    {
      "inputs": [],
      "name": "productCount",
      "outputs": [
        {
          "internalType": "uint256",
          "name": "",
          "type": "uint256"
        }
      ],
      "stateMutability": "view",
      "type": "function",
      "constant": true
    },
    {
      "inputs": [
        {
          "internalType": "uint256",
          "name": "",
          "type": "uint256"
        }
      ],
      "name": "productToOwner",
      "outputs": [
        {
          "internalType": "address",
          "name": "",
          "type": "address"
        }
      ],
      "stateMutability": "view",
      "type": "function",
      "constant": true
    },
    {
      "inputs": [
        {
          "internalType": "uint256",
          "name": "",
          "type": "uint256"
        }
      ],
      "name": "products",
      "outputs": [
        {
          "internalType": "address",
          "name": "manufacturer",
          "type": "address"
        },
        {
          "internalType": "string",
          "name": "model",
          "type": "string"
        },
        {
          "internalType": "uint256",
          "name": "mfg",
          "type": "uint256"
        },
        {
          "internalType": "uint256",
          "name": "price",
          "type": "uint256"
        },
        {
          "internalType": "uint256",
          "name": "mrp",
          "type": "uint256"
        },
        {
          "internalType": "bool",
          "name": "forSale",
          "type": "bool"
        }
      ],
      "stateMutability": "view",
      "type": "function",
      "constant": true
    },
    {
      "inputs": [
        {
          "internalType": "address",
          "name": "_brandOwner",
          "type": "address"
        }
      ],
      "name": "reportBrand",
      "outputs": [],
      "stateMutability": "nonpayable",
      "type": "function"
    },
    {
      "inputs": [
        {
          "internalType": "address",
          "name": "",
          "type": "address"
        },
        {
          "internalType": "address",
          "name": "",
          "type": "address"
        }
      ],
      "name": "userBrand",
      "outputs": [
        {
          "internalType": "uint256",
          "name": "productCount",
          "type": "uint256"
        },
        {
          "internalType": "bool",
          "name": "hasReported",
          "type": "bool"
        }
      ],
      "stateMutability": "view",
      "type": "function",
      "constant": true
    },
    {
      "inputs": [
        {
          "internalType": "uint256",
          "name": "_productId",
          "type": "uint256"
        },
        {
          "internalType": "uint256",
          "name": "_price",
          "type": "uint256"
        }
      ],
      "name": "setPrice",
      "outputs": [],
      "stateMutability": "nonpayable",
      "type": "function"
    },
    {
      "inputs": [
        {
          "internalType": "uint256",
          "name": "_productId",
          "type": "uint256"
        }
      ],
      "name": "openForSale",
      "outputs": [],
      "stateMutability": "nonpayable",
      "type": "function"
    },
    {
      "inputs": [
        {
          "internalType": "uint256",
          "name": "_productId",
          "type": "uint256"
        }
      ],
      "name": "closeForSale",
      "outputs": [],
      "stateMutability": "nonpayable",
      "type": "function"
    },
    {
      "inputs": [
        {
          "internalType": "uint256",
          "name": "_productId",
          "type": "uint256"
        }
      ],
      "name": "buyProduct",
      "outputs": [],
      "stateMutability": "payable",
      "type": "function",
      "payable": true
    }
  ],
  "bytecode": "0x608060405234801561001057600080fd5b50611add806100206000396000f3fe6080604052600436106100e85760003560e01c80638eb05f881161008a578063e0f6ef8711610059578063e0f6ef87146102da578063e3acfcce146102ef578063f4a44d2d1461030f578063f7d975771461032f57600080fd5b80638eb05f881461024d57806393a2abdd1461026d578063b3cc8cd91461028c578063ca86c637146102ac57600080fd5b8063420fadc8116100c6578063420fadc8146101a35780635b7fd9b5146101d95780637acc0b20146102085780638642269e1461023a57600080fd5b80630349da7e146100ed57806315f514161461012a57806316cba8ec1461014c575b600080fd5b3480156100f957600080fd5b5061010d610108366004611559565b61034f565b6040516001600160a01b0390911681526020015b60405180910390f35b34801561013657600080fd5b5061014a610145366004611559565b610379565b005b34801561015857600080fd5b5061018e61016736600461158e565b60036020908152600092835260408084209091529082529020805460019091015460ff1682565b60408051928352901515602083015201610121565b3480156101af57600080fd5b5061010d6101be366004611559565b6005602052600090815260409020546001600160a01b031681565b3480156101e557600080fd5b506101f96101f43660046115c1565b61042a565b6040516101219392919061163f565b34801561021457600080fd5b50610228610223366004611559565b61055c565b60405161012196959493929190611675565b61014a610248366004611559565b61063a565b34801561025957600080fd5b5061014a6102683660046115c1565b6109e7565b34801561027957600080fd5b506002545b604051908152602001610121565b34801561029857600080fd5b5061014a6102a7366004611559565b610bb8565b3480156102b857600080fd5b506102cc6102c736600461158e565b610c58565b6040516101219291906116c0565b3480156102e657600080fd5b5060045461027e565b3480156102fb57600080fd5b5061014a61030a366004611786565b610d47565b34801561031b57600080fd5b5061014a61032a3660046117ea565b610fc3565b34801561033b57600080fd5b5061014a61034a366004611841565b6112a6565b6002818154811061035f57600080fd5b6000918252602090912001546001600160a01b0316905081565b60008181526005602052604090205481906001600160a01b031633146103ba5760405162461bcd60e51b81526004016103b190611863565b60405180910390fd5b6001600483815481106103cf576103cf6118b0565b600091825260209182902060069190910201600501805460ff1916921515929092179091556040518381527f1dc13bd033e49239661ba80e30ae191b1c31c79277b531e88246c7517971b85d91015b60405180910390a15050565b600060208190529081526040902080548190610445906118c6565b80601f0160208091040260200160405190810160405280929190818152602001828054610471906118c6565b80156104be5780601f10610493576101008083540402835291602001916104be565b820191906000526020600020905b8154815290600101906020018083116104a157829003601f168201915b5050505050908060010180546104d3906118c6565b80601f01602080910402602001604051908101604052809291908181526020018280546104ff906118c6565b801561054c5780601f106105215761010080835404028352916020019161054c565b820191906000526020600020905b81548152906001019060200180831161052f57829003601f168201915b5050505050908060020154905083565b6004818154811061056c57600080fd5b6000918252602090912060069091020180546001820180546001600160a01b0390921693509061059b906118c6565b80601f01602080910402602001604051908101604052809291908181526020018280546105c7906118c6565b80156106145780601f106105e957610100808354040283529160200191610614565b820191906000526020600020905b8154815290600101906020018083116105f757829003601f168201915b505050506002830154600384015460048501546005909501549394919390925060ff1686565b806004818154811061064e5761064e6118b0565b600091825260209091206005600690920201015460ff1615156001146106c45760405162461bcd60e51b815260206004820152602560248201527f5468652070726f64756374206973206e6f7420617661696c61626c6520666f726044820152642073616c6560d81b60648201526084016103b1565b81600481815481106106d8576106d86118b0565b9060005260206000209060060201600301543410156107395760405162461bcd60e51b815260206004820152601c60248201527f54686520616d6f756e74206973206e6f742073756666696369656e740000000060448201526064016103b1565b600083815260056020526040902054600480546001600160a01b0390921691339183916108fc919088908110610771576107716118b0565b9060005260206000209060060201600301549081150290604051600060405180830381858888f193505050501580156107ae573d6000803e3d6000fd5b50806001600160a01b03166108fc600487815481106107cf576107cf6118b0565b906000526020600020906006020160030154346107ec9190611917565b6040518115909202916000818181858888f19350505050158015610814573d6000803e3d6000fd5b50600085815260056020526040812080546001600160a01b031916331790556004805487908110610847576108476118b0565b600091825260208083206006909202909101546001600160a01b03868116845260038352604080852091909216808552925282208054919350909161088b8361192e565b90915550506001600160a01b03808316600090815260036020908152604080832093851683529290529081208054916108c383611945565b90915550506001600160a01b0380841660009081526003602090815260408083209385168352929052205415801561092357506001600160a01b0380841660009081526003602090815260408083209385168352929052206001015460ff165b15610962576001600160a01b038084166000908152600360209081526040808320938516835292905220600101805460ff1916905561096281846113c6565b857fbfea7f3dffa46bfb8e5718e1dc00a480ee6575f0654bb8e00184518e24435500848460048a81548110610999576109996118b0565b600091825260209182902060036006909202010154604080516001600160a01b03958616815294909316918401919091529082015242606082015260800160405180910390a2505050505050565b3360009081526003602090815260408083206001600160a01b03851684529091529020548190610a895760405162461bcd60e51b815260206004820152604160248201527f596f7520617265207265706f7274696e672061206272616e642062757420796f60448201527f7520646f6e742774206f776e20616e79206f6620697427732070726f647563746064820152607360f81b608482015260a4016103b1565b3360009081526003602090815260408083206001600160a01b038516845290915290206001015460ff1615610b005760405162461bcd60e51b815260206004820152601e60248201527f596f752063616e2774207265706f72742061206272616e64207477696365000060448201526064016103b1565b3360009081526003602090815260408083206001600160a01b038616845282528083206001908101805460ff19169091179055908290528120600201805491610b4883611945565b90915550506001600160a01b03821660009081526020819052604090206002908101541115610b7a57610b7a82611432565b604080516001600160a01b03841681523360208201527fe7747c1468ca696f832f20cb4db5f557554916e9035754b5b071c3b04a4decb8910161041e565b60008181526005602052604090205481906001600160a01b03163314610bf05760405162461bcd60e51b81526004016103b190611863565b600060048381548110610c0557610c056118b0565b600091825260209182902060069190910201600501805460ff1916921515929092179091556040518381527f6a57706098266f632517e186f276bc17d3bb111568f063b9eb6719717256f835910161041e565b6001600160a01b038082166000908152600360209081526040808320938616835292905290812054606090610cb657505060408051808201909152600e81526d466972737420507572636861736560901b6020820152600090610d40565b6001600160a01b03808416600090815260036020908152604080832093881683529290522060019081015460ff1615151415610d1d57505060408051808201909152601081526f105b1c9958591e4814995c1bdc9d195960821b6020820152600090610d40565b505060408051808201909152600681526514995c1bdc9d60d21b60208201526001905b9250929050565b3360009081526020819052604081208054610d61906118c6565b80601f0160208091040260200160405190810160405280929190818152602001828054610d8d906118c6565b8015610dda5780601f10610daf57610100808354040283529160200191610dda565b820191906000526020600020905b815481529060010190602001808311610dbd57829003601f168201915b505050505090508051600014610e405760405162461bcd60e51b815260206004820152602560248201527f4f776e6572206861732061206272616e64206f6e207468652073616d6520616360448201526418dbdd5b9d60da1b60648201526084016103b1565b82600181604051610e519190611960565b9081526040519081900360200190205460ff1615610eb15760405162461bcd60e51b815260206004820152601960248201527f4272616e64204e616d6520416c7265616479204578697374730000000000000060448201526064016103b1565b60028054600181019091557f405787fa12a823e0f2b7631cc41b3ba8828b3321ca811111fa75cd3aa3bb5ace0180546001600160a01b03191633908117909155604080516060810182528681526020818101879052600082840181905293845283815291909220825180519192610f2d928492909101906114c0565b506020828101518051610f4692600185019201906114c0565b506040820151816002015590505060018085604051610f659190611960565b908152604051908190036020018120805492151560ff19909316929092179091557fe6fbc010725b0b71430339ac30f684b21c0b685f04c99a05b107206a8c63a1fa90610fb5903390879061197c565b60405180910390a150505050565b3360008181526020819052604081208054610fdd906118c6565b80601f0160208091040260200160405190810160405280929190818152602001828054611009906118c6565b80156110565780601f1061102b57610100808354040283529160200191611056565b820191906000526020600020905b81548152906001019060200180831161103957829003601f168201915b5050505050905060008151116110a75760405162461bcd60e51b8152602060048201526016602482015275139bdd081848149959da5cdd195c995908109c985b9960521b60448201526064016103b1565b83838082111561110e5760405162461bcd60e51b815260206004820152602c60248201527f5072696365206d757374206265206c657373207468616e204d6178696d756d2060448201526b52657461696c20507269636560a01b60648201526084016103b1565b6040805160c08101825233815260208082018a81529282018b90526060820189905260808201889052600160a0830181905260048054918201815560005282517f8a35acfbc15ff81a39ae7d344fd709f28e8600b4aa8c65c6b64bfe7fe36bd19b600690920291820180546001600160a01b0319166001600160a01b03909216919091178155935180519394936111ce937f8a35acfbc15ff81a39ae7d344fd709f28e8600b4aa8c65c6b64bfe7fe36bd19c9093019291909101906114c0565b506040820151600282015560608201516003820155608082015160048083019190915560a0909201516005909101805460ff19169115159190911790555460009061121b90600190611917565b600081815260056020908152604080832080546001600160a01b03191633908117909155835260038252808320909152812080549293509061125c83611945565b90915550506040805133815242602082015282917fa119589d8d9d80f8c531968021b54e16e57f459b696c6e16dc14f622a373061b910160405180910390a2505050505050505050565b60008281526005602052604090205482906001600160a01b031633146112de5760405162461bcd60e51b81526004016103b190611863565b8282600482815481106112f3576112f36118b0565b9060005260206000209060060201600401548111156113545760405162461bcd60e51b815260206004820152601b60248201527f5072696365206d757374206265206c657373207468616e204d5250000000000060448201526064016103b1565b8360048681548110611368576113686118b0565b9060005260206000209060060201600301819055507f7a3325b9d11ddc18edd3dff130141b6ce951061520c6b933a604bf701f3d805285856040516113b7929190918252602082015260400190565b60405180910390a15050505050565b6001600160a01b03821660009081526020819052604081206002018054916113ed8361192e565b9091555050604080516001600160a01b038085168252831660208201527f597f07ee0985d333537a5ddb478b64c0de14188b687ed8225a836d11b55707f8910161041e565b6001600160a01b03811660009081526020819052604090819020905160019161145a916119a0565b908152604080519182900360209081018320805460ff191690556001600160a01b038416600090815290819052207f8a36be64cb775ce9b5064fb7f6e835793bfff4f4a873dee5d16268132033852f916114b5918491611a12565b60405180910390a150565b8280546114cc906118c6565b90600052602060002090601f0160209004810192826114ee5760008555611534565b82601f1061150757805160ff1916838001178555611534565b82800160010185558215611534579182015b82811115611534578251825591602001919060010190611519565b50611540929150611544565b5090565b5b808211156115405760008155600101611545565b60006020828403121561156b57600080fd5b5035919050565b80356001600160a01b038116811461158957600080fd5b919050565b600080604083850312156115a157600080fd5b6115aa83611572565b91506115b860208401611572565b90509250929050565b6000602082840312156115d357600080fd5b6115dc82611572565b9392505050565b60005b838110156115fe5781810151838201526020016115e6565b8381111561160d576000848401525b50505050565b6000815180845261162b8160208601602086016115e3565b601f01601f19169290920160200192915050565b6060815260006116526060830186611613565b82810360208401526116648186611613565b915050826040830152949350505050565b6001600160a01b038716815260c06020820181905260009061169990830188611613565b905085604083015284606083015283608083015282151560a0830152979650505050505050565b82151581526040602082015260006116db6040830184611613565b949350505050565b634e487b7160e01b600052604160045260246000fd5b600082601f83011261170a57600080fd5b813567ffffffffffffffff80821115611725576117256116e3565b604051601f8301601f19908116603f0116810190828211818310171561174d5761174d6116e3565b8160405283815286602085880101111561176657600080fd5b836020870160208301376000602085830101528094505050505092915050565b6000806040838503121561179957600080fd5b823567ffffffffffffffff808211156117b157600080fd5b6117bd868387016116f9565b935060208501359150808211156117d357600080fd5b506117e0858286016116f9565b9150509250929050565b6000806000806080858703121561180057600080fd5b84359350602085013567ffffffffffffffff81111561181e57600080fd5b61182a878288016116f9565b949794965050505060408301359260600135919050565b6000806040838503121561185457600080fd5b50508035926020909101359150565b6020808252602d908201527f4f6e6c792050726f64756374204f776e65722063616e20706572666f726d207460408201526c3434b99037b832b930ba34b7b760991b606082015260800190565b634e487b7160e01b600052603260045260246000fd5b600181811c908216806118da57607f821691505b602082108114156118fb57634e487b7160e01b600052602260045260246000fd5b50919050565b634e487b7160e01b600052601160045260246000fd5b60008282101561192957611929611901565b500390565b60008161193d5761193d611901565b506000190190565b600060001982141561195957611959611901565b5060010190565b600082516119728184602087016115e3565b9190910192915050565b6001600160a01b03831681526040602082018190526000906116db90830184611613565b60008083546119ae816118c6565b600182811680156119c657600181146119d757611a06565b60ff19841687528287019450611a06565b8760005260208060002060005b858110156119fd5781548a8201529084019082016119e4565b50505082870194505b50929695505050505050565b60018060a01b03831681526000602060408184015260008454611a34816118c6565b8060408701526060600180841660008114611a565760018114611a6a57611a98565b60ff19851689840152608089019550611a98565b896000528660002060005b85811015611a905781548b8201860152908301908801611a75565b8a0184019650505b5093999850505050505050505056fea2646970667358221220e2425a1aab574b716886e406074fbde8eb979ae8d5cda295dfce6cf34ec3769d64736f6c634300080c0033",
  "immutableReferences": {},
  "source": "// SPDX-License-Identifier: MIT\r\npragma solidity ^0.8.0;\r\n\r\nimport './ProductFactory.sol';\r\n\r\ncontract Market is ProductFactory {\r\n    event priceUpdated(uint256 _productId, uint256 _newPrice);\r\n    event saleStarted(uint256 _productId);\r\n    event saleClosed(uint256 _productId);\r\n    event buySuccess(\r\n        uint256 indexed _productId,\r\n        address _from,\r\n        address _to,\r\n        uint256 _price,\r\n        uint256 _time\r\n    );\r\n\r\n    modifier hasEnoughMoney(uint256 _productId) {\r\n        require(\r\n            msg.value >= products[_productId].price,\r\n            'The amount is not sufficient'\r\n        );\r\n        _;\r\n    }\r\n\r\n    function setPrice(uint256 _productId, uint256 _price)\r\n        public\r\n        onlyProductOwner(_productId)\r\n        isValidPrice(_productId, _price)\r\n    {\r\n        products[_productId].price = _price;\r\n        emit priceUpdated(_productId, _price);\r\n    }\r\n\r\n    function openForSale(uint256 _productId)\r\n        public\r\n        onlyProductOwner(_productId)\r\n    {\r\n        products[_productId].forSale = true;\r\n        emit saleStarted(_productId);\r\n    }\r\n\r\n    function closeForSale(uint256 _productId)\r\n        public\r\n        onlyProductOwner(_productId)\r\n    {\r\n        products[_productId].forSale = false;\r\n        emit saleClosed(_productId);\r\n    }\r\n\r\n    function buyProduct(uint256 _productId)\r\n        public\r\n        payable\r\n        isAvailableForSale(_productId)\r\n        hasEnoughMoney(_productId)\r\n    {\r\n        address payable _seller = payable(productToOwner[_productId]);\r\n        address payable _buyer = payable(msg.sender);\r\n        _seller.transfer(products[_productId].price);\r\n        _buyer.transfer(msg.value - products[_productId].price);\r\n        productToOwner[_productId] = msg.sender;\r\n\r\n        // Report Stuff\r\n        address _brandOwner = products[_productId].manufacturer;\r\n        userBrand[_seller][_brandOwner].productCount--;\r\n        userBrand[_buyer][_brandOwner].productCount++;\r\n        // If seller has reported the brand and is now selling his last product of that brand\r\n        if (\r\n            userBrand[_seller][_brandOwner].productCount == 0 &&\r\n            userBrand[_seller][_brandOwner].hasReported\r\n        ) {\r\n            userBrand[_seller][_brandOwner].hasReported = false;\r\n            revokeReport(_brandOwner, _seller);\r\n        }\r\n\r\n        emit buySuccess(\r\n            _productId,\r\n            _seller,\r\n            _buyer,\r\n            products[_productId].price,\r\n            block.timestamp\r\n        );\r\n    }\r\n}\r\n",
  "sourcePath": "C:\\Users\\hp\\Desktop\\AuthIt\\contracts\\Market.sol",
  "compiler": {
    "name": "solc",
    "version": "0.8.12+commit.f00d7308.Emscripten.clang"
  },
  "schemaVersion": "3.4.10",
  "updatedAt": "2022-09-19T13:59:24.540Z",
  "networkType": "ethereum",
  "devdoc": {
    "kind": "dev",
    "methods": {},
    "version": 1
  },
  "userdoc": {
    "kind": "user",
    "methods": {},
    "version": 1
  }
}